:02000000FE2BD5
:10071400F030831685008601013083128500A823FA
:100724008312900010089100911F9E2BF7309000C7
:10073400100885050515A32BFB30900010088505CE
:10074400851511087F39FF3A8600912B83128E019B
:10075400FE308C000C08850504308D003D308C0083
:100764008C0BB22B8D0BB22BB72B831205140430D8
:100774008D003D308C008C0BBD2B8D0BBD2BC22B03
:1007840083128F0108300F020318FC2B04308D00F4
:100794003D308C008C0BCC2B8D0BCC2BD12B8312AE
:1007A40005088C00043003108C0CFF3E031DD52B70
:1007B4000C0801398D000D088E04851404308D0059
:1007C4003D308C008C0BE42B8D0BE42BE92BFD309E
:1007D40083128C000C08850507300F020318F42BD4
:1007E40003108E0D01308C000C088F0708300F02A7
:0C07F400031CC82B0E08080083018A2B90
:00000001FF
