:02000000EA2BE9
:1004A400023400340534003401340034043400349C
:1004B40003340034193084002D3083128C00040876
:1004C4008D000A308E000C088400831300088F000E
:1004D4008C0A0D0884000F0880008D0A8E0B652A93
:1004E4001A08980019089700A301A4012408803A67
:1004F400CF0080304F02031D812A053023020318E8
:10050400B92A831223088C000C07193E8400831334
:1005140000088D00840A00088E000E08803A8F00BF
:100524001808803A0F02031D992A17080D020318B0
:10053400A72A831223088C000C07193E8400831316
:1005440000089700840A0008980001308312A3076A
:100554000318A40A0030A4072408803ACF0080308E
:100564004F02031DB72A05302302031C832A83127A
:10057400A901AA012A08803ACF0080304F02031D46
:10058400C52A043029020318512B83122A08A60015
:100594002908A5002608803ACF0080304F02031DA9
:1005A400D52A0530250203183F2B831229088C0015
:1005B4000C07193E8400831300088D00840A000888
:1005C4008E0025088F000F07193E84000008900054
:1005D400840A000891001108803A92000E08803ABB
:1005E4001202031DF72A0D08100203182D2B831283
:1005F40029088C000C07193E84008313000893001B
:10060400840A0008940025088C000C07193E840015
:1006140000088D00840A00088E0029088F000F0747
:10062400193E84000D088000840A0E088000290801
:100634008C000C07193E840000088D00840A000811
:100644008E0025088F000F07193E84000D088000D6
:10065400840A0E08800001308312A5070318A60A35
:100664000030A6072608803ACF0080304F02031DD1
:100674003D2B05302502031CD72A01308312A9071C
:100684000318AA0A0030AA072A08803ACF0080304B
:100694004F02031D4F2B04302902031CC72A831267
:1006A400AB01AC012C08803ACF0080304F02031D0F
:1006B4005D2B04302B020318E92B83122C08A800AD
:1006C4002B08A7002808803ACF0080304F02031D72
:1006D4006D2B053027020318D72B831227088C00B3
:1006E4000C07193E8400831300088D00840A000857
:1006F4008E002B088F000F07193E8400000890001D
:10070400840A000891001108803A92000E08803A89
:100714001202031D8F2B0D0810020318C52B831220
:100724002B088C000C07193E8400831300089500E5
:10073400840A0008960027088C000C07193E8400E0
:1007440000088D00840A00088E002B088F000F0714
:10075400193E84000D088000840A0E0880002B08CE
:100764008C000C07193E840000088D00840A0008E0
:100774008E0027088F000F07193E84000D088000A3
:10078400840A0E08800001308312A7070318A80A00
:100794000030A8072808803ACF0080304F02031D9C
:1007A400D52B05302702031C6F2B01308312AB07B6
:1007B4000318AC0A0030AC072C08803ACF00803014
:1007C4004F02031DE72B04302B02031C5F2B002870
:1007D4005222AD005322AE005422AF005522B00085
:1007E4005622B1005722B2005822B3005922B40055
:0C07F4005A22B5005B22B60083015C2A8B
:00000001FF
