:02000000FE2BD5
:1006C600F03083168500F8308600831285010730E6
:1006D60086009001852383128E000E088F00AA30B3
:1006E6000F06031D7A2B10088E000E088F001008C7
:1006F6000F0603196D2B0F088E000E0890001008C8
:1007060085006D2B043083128600912B0130080082
:100716000430080007300800003008000608F039E9
:100726008C008D010D08003A03199A2BA82B0C0892
:10073600103A0319892B303A03198B2B603A0319A7
:100746008D2BC03A03198F2BA82B02308600BB2BAA
:10075600061AAB2B02300800861AAF2B05300800AC
:10076600061BB32B08300800861BB72B0030080089
:100776000608F0398C008D010D08003A0319C42BC8
:10078600D22B0C08103A0319AB2B303A0319AF2BB6
:10079600603A0319B32BC03A0319B72BD22B013099
:1007A6008600E52B061AD52B03300800861AD92BAE
:1007B60006300800061BDD2B09300800861BE12BDE
:1007C600003008000608F0398C008D010D08003A4B
:1007D6000319EE2BFC2B0C08103A0319D52B303AD3
:1007E6000319D92B603A0319DD2BC03A0319E12B03
:0A07F600FC2BAA3008008301632BDE
:00000001FF
