:020000000F28C7
:10000800CE00030E83128C0004088D000A088E00AF
:100018004F088F002A2910285D21A4005E21A50021
:100028005F21A6006021A7006121A8006221A90024
:100038006321AA006421AB006521AC006621AD00F4
:10004800AE01AF01B001B101B2018301BC28831236
:100058009E010A3098000030990022089B00210870
:100068009A00F72083121808492183129E019E0ADC
:100078000A309800003099000A3090000030910052
:1000880022089300210892007F20831211089B0008
:1000980010089A00F72083121808492102308312A9
:1000A800A30023089E000A309800003099006430AD
:1000B80090000030910022089300210892007F20D0
:1000C800831211089B0010089A00F7208312180861
:1000D800492103308312A30023089E00E8309000D2
:1000E8000330910022089300210892007F20831298
:1000F800100849210800831295019601100811047F
:100108000319B7289701970A911B96280130031005
:10011800900D910DFF3E031D8B28013094001408AB
:100128009707882801300310950D960DFF3E031D93
:10013800972811081302031DA32810081202031C94
:10014800AC28100892021108031C9303930215149B
:1001580001300310910C900CFF3E031DAD280130B7
:100168009702031D962816089100150890000800AC
:100178003A30831281008316811201128111011411
:1001880081100115F0308500013086000F30831290
:100198008500240886008B13831601130B168B1613
:1001A8008B178312AE01AF01B001B101831232087F
:1001B8000319EB280A3030063104031DEB280130FF
:1001C800AE070318AF0A0030AF07B001B101013024
:1001D800AE070318AF0A0030AF072F08A2002E0899
:1001E800A1002B20DA2883121808190403192529DD
:1001F8009D019D0A991B0C2901300310980D990D3A
:10020800FF3E031D012901309C001C089D07FE28A4
:1002180019081B02031D122918081A02031C1A299F
:1002280018089A021908031C9B039B02013003104B
:10023800990C980CFF3E031D1B2901309D02031DDC
:100248000C291B0899001A08980008008B1C3529EE
:10025800B209320803193429AE01AF01B001B10166
:100268008B100B1D3E290130B0070318B10A00306E
:10027800B1070B110F08CF000E088A000D08840083
:100288000C0E8300CE0E4E0E09008312A000013022
:100298009F001E0A512903109F0DFF3E031D4F2981
:1002A8001F0885002008243E840083130008860068
:1002B80008008034F234483460343234243404344E
:0602C800F0340034203484
:00000001FF
