:10000000FA2B00308A000408840A82070034313455
:1000100031343134313400343234323432343234E5
:1000200000343334333433343334003434343434FC
:06003000343434340034C6
:10042A008312910001308D020030031C8E038E026C
:10043A000D0A03190E0A03194F2A1108840083139F
:10044A0000080319322A0C08840001208F001108C1
:10045A00840000080F060319462A0C0884000120AC
:10046A008F0090018F0990098F0A0319900A1108C9
:10047A00840000080F078C0010080318100A8D006A
:10048A00080001308F000F08910701308F000F0814
:10049A008C07172A8C018D0108000430831286000C
:1004AA00662A061A562A31300800861A5A2A343021
:1004BA000800061B5E2A37300800861B622A2A308B
:1004CA0008000608F0398C008D010D08003A03195E
:1004DA006F2A7D2A0C08103A0319562A303A031952
:1004EA005A2A603A03195E2AC03A0319622A7D2AF7
:1004FA0002308600902A061A802A32300800861AAC
:10050A00842A35300800061B882A38300800861BE2
:10051A008C2A383008000608F0398C008D010D0845
:10052A00003A0319992AA72A0C08103A0319802AB3
:10053A00303A0319842A603A0319882AC03A0319FF
:10054A008C2AA72A01308600BA2A061AAA2A333028
:10055A000800861AAE2A36300800061BB22A39303D
:10056A000800861BB62A233008000608F0398C00DA
:10057A008D010D08003A0319C32AD12A0C08103A32
:10058A000319AA2A303A0319AE2A603A0319B22A81
:10059A00C03A0319B62AD12AAA300800E0308316D5
:1005AA008500F83086000F308312850007308600F8
:1005BA00200897001F0896001E0895001D08940041
:1005CA009B019A0199019801522283129200120802
:1005DA009C002A301C06031D012B1A08031D012B3F
:1005EA001908031D012B1808031D012B9A019A0AE9
:1005FA00AA30920012089C0019080319102B233004
:10060A001C06031D102B99019801980AAA30920022
:10061A0012089C00232B23301C06031D232B9A014E
:10062A0099010E308500A330930055309200920B49
:10063A001C2B930B1C2B0F30831285001A080319ED
:10064A008A2B04301B0203183B2BAA301C06031901
:10065A008A2B1C0892001B08143E8400120883137C
:10066A0080000130920012089B078A2B9B010130FF
:10067A00920012088C0004308D0000308E00143075
:10068A00152283120C080D040319782B06309200E8
:10069A0012088C0004308D0000308E0014301522B0
:1006AA0083120C080D040319782B0B3092001208E0
:1006BA008C0004308D0000308E0014301522831215
:1006CA000C080D040319782B1030920012088C00C4
:1006DA0004308D0000308E001430152283120C086D
:1006EA000D04031D7C2B9A019901990A8A2B0E305D
:1006FA008500A330930055309200920B822B930B06
:10070A00822B0F30831285009A0118080319E92AEF
:10071A0004301B020318A22BAA301C060319E92A6B
:10072A001C0892001B08143E8400120883138000E0
:10073A000130920012089B07E92A9B0101309200BE
:10074A0012088C0004308D0000308E0014301522FF
:10075A0083120C080D040319DF2B063092001208CD
:10076A008C0004308D0000308E0014301522831264
:10077A000C080D040319DF2B0B30920012088C00B1
:10078A0004308D0000308E001430152283120C08BC
:10079A000D040319DF2B1030920012088C0004306C
:1007AA008D0000308E001430152283120C080D04BF
:1007BA00031DEC2B8501A330930055309200920B58
:1007CA00E42B930BE42B0F3083128500E92A0E30B9
:1007DA008500A330930055309200920BF22B930BB5
:1007EA00F22B0F3083128500E82A9D019E019F019A
:0607FA00A0018301D32AD7
:00000001FF
