:02000000FE2BD5
:10068400E030831685008601013083128500303006
:10069400860004308E00CF308D0001308C008C0B2E
:1006A400512B8D0B512B8E0B512B582B83128514F0
:1006B40060308600A3308D0055308C008C0B602B8D
:1006C4008D0B602B83120616A3308D0055308C00E1
:1006D4008C0B6A2B8D0B6A2BEF3083128C000C0869
:1006E4008605A3308D0055308C008C0B772B8D0B39
:1006F400772B83120616A3308D0055308C008C0B9B
:10070400812B8D0B812BEF3083128C000C08860516
:10071400A3308D0055308C008C0B8E2B8D0B8E2BC3
:1007240083128615A3308D0055308C008C0B982BCA
:100734008D0B982B0430831285008430860004309E
:100744008E00CF308D0001308C008C0BA72B8D0BCD
:10075400A72B8E0BA72BAE2B0C30831286008501A2
:10076400A3308D0055308C008C0BB62B8D0BB62B23
:10077400831205158617A3308D0055308C008C0B21
:10078400C12B8D0BC12BFB3083128C000C0885050B
:100794007F308C000C088605A3308D0055308C000A
:1007A4008C0BD22B8D0BD22B831205158617A330FD
:1007B4008D0055308C008C0BDD2B8D0BDD2BFB302D
:1007C40083128C000C0885057F308C000C0886058C
:1007D400A3308D0055308C008C0BEE2B8D0BEE2B43
:1007E400831285140617A3308D0055308C008C0BB2
:0C07F400F92B8D0BF92B462B8301422BB7
:00000001FF
