:10000000FE2BCE2BFD2BFD2BFD2BFD2BFD2BFD2BDE
:10001000AF2BFD2BFD2BFD2BFD2BFD2B8E2B6B2AF0
:100020008A2AAB2ACC2AEB2A0C2B2D2B4C2B6D2B9E
:1003E600E03083168500F8308600831285010730D9
:1003F6008600FF216822FC290430831286000B2A1E
:100406003130080034300800373008002A30080040
:100416000608F0398C008D010D08003A0319142ADC
:10042600222A0C08103A0319032A303A0319052A1E
:10043600603A0319072AC03A0319092A222A023008
:1004460086002D2A32300800353008003830080082
:10045600383008000608F0398C008D010D08003A86
:100466000319362A442A0C08103A0319252A303A69
:100476000319272A603A0319292AC03A03192B2A95
:10048600442A013086004F2A3330080036300800EF
:1004960039300800233008000608F0398C008D0139
:1004A6000D08003A0319582A662A0C08103A03194F
:1004B600472A303A0319492A603A03194B2AC03AA7
:1004C60003194D2A662AAA30080083128D00EF2BE5
:1004D6008E018F0100300F02323003190E0203180D
:1004E6000800051453308C008C0B772AFE308312DB
:1004F6008C000C08850553308C008C0B802A01304B
:1005060083128E0703188F0A00308F076D2A900119
:10051600910100301102323003191002031808004D
:1005260005144A308C008C0B962A992AFE308312C9
:100536008C000C0885054A308C008C0BA02AA32A57
:100546000130831290070318910A003091078C2A14
:10055600920193010030130232300319120203187C
:100566000800051442308C008C0BB72A0000FE30C0
:1005760083128C000C08850542308C008C0BC12A36
:1005860000000130831292070318930A0030930784
:10059600AD2A940195010030150232300319140278
:1005A60003180800051453308C008C0BD82AFE3033
:1005B60083128C000C08850553308C008C0BE12AC5
:1005C6000130831294070318950A00309507CE2A46
:1005D60096019701003017023230031916020318EC
:1005E600080005144A308C008C0BF72AFA2AFE30D4
:1005F60083128C000C0885054A308C008C0B012B6D
:10060600042B0130831296070318970A00309707C8
:10061600ED2A9801990100301902323003191802A7
:1006260003180800051442308C008C0B182B0000B0
:10063600FE3083128C000C08850542308C008C0B32
:10064600222B00000130831298070318990A003004
:1006560099070E2B9A019B0100301B0232300319B9
:100666001A0203180800051453308C008C0B392B22
:10067600FE3083128C000C08850553308C008C0BE1
:10068600422B013083129A0703189B0A00309B07FE
:100696002F2B9C019D0100301D02323003191C02D4
:1006A6000318080005144A308C008C0B582B5B2B62
:1006B600FE3083128C000C0885054A308C008C0BAA
:1006C600622B652B013083129C0703189D0A0030AC
:1006D6009D074E2B9E019F0100301F0232300319E9
:1006E6001E0203180800051442308C008C0B792B6F
:1006F6000000FE3083128C000C08850542308C0009
:100706008C0B832B0000013083129E0703189F0A6F
:1007160000309F076F2BA001A1010030210232306B
:10072600031920020318080005144A308C008C0BAC
:100736009A2B9D2BFE3083128C000C0885054A30BF
:100746008C008C0BA42BA72B01308312A007031857
:10075600A10A0030A107902BA201A30100302302B9
:1007660032300319220203180800051453308C0096
:100776008C0BBB2BFE3083128C000C088505533086
:100786008C008C0BC42B01308312A2070318A30A1A
:100796000030A307B12BA401A50100302502323099
:1007A6000319240203180800051442308C008C0B30
:1007B600DA2B0000FE3083128C000C0885054230CF
:1007C6008C008C0BE42B000001308312A407031865
:1007D600A50A0030A507D02B0D08DD3E031C080036
:1007E6008400173004020318080000308A00013024
:0A07F6000407820008008301F329C4
:00000001FF
