:020000000F28C7
:10000800CE00030E83128C0004088D000A088E00AF
:100018004F088F00FE291028A401A5018301ED28AF
:1000280083129B0003309A001A0886052728861732
:10003800872806178728861687280616872886158C
:100048008728061587281908840006300402031833
:10005800872802308A001C3004078200872885011F
:10006800FC309A001A0886058614080019308500A5
:10007800FC309A001A08860503309A001A0886048C
:10008800080004308500FC309A001A08860506141A
:10009800080010308500FC309A001A0886050614FE
:1000A800080019308500FC309A001A0886050608F1
:1000B800080012308500FC309A001A0886050608E8
:1000C800080002308500FC309A001A0886050608E8
:1000D800080018308500FC309A001A08860503309D
:1000E8009A001A08860408008501FC309A001A084C
:1000F80086050608080010308500FC309A001A08AA
:100108008605060808001B0884000A300402031844
:10011800080002308A0012300407820008008312A7
:100128009601911F9E2890099109900A0319910A36
:100138009601960A931FA92892099309920A03190E
:10014800930A013094001408960697019801100844
:1001580011040319E0289501950A911BBF28013065
:100168000310900D910DFF3E031DB428013094003B
:1001780014089507B12801300310970D980DFF3E1C
:10018800031DC02811081302031DCC2810081202F1
:10019800031CD528100892021108031C930393022C
:1001A800171401300310910C900CFF3E031DD62844
:1001B80001309502031DBF2816080319E82897097E
:1001C8009809970A0319980A1808910017089000C7
:1001D80008003A30831281008316811201128111BE
:1001E8000114811001158B138B168B17E0308500D5
:1001F800860117308312A0002008A1003A30A00021
:100208002008A2003730A0002008A300A401A501FF
:100218000030831225020A3003192402031C1A290C
:100228000130A0002008A307A401A5013C30230247
:10023800031C2329A3010130A0002008A2073C3099
:100248002202031C2C29A2010130A0002008A107CA
:10025800183021020318A1012108AF2183122208B6
:10026800852183122308D9210C2983129601931F13
:10027800442992099309920A0319930A9601960A46
:10028800911F4B2990099109900A0319910A1008A6
:100298001104031978299501950A911B5F290130EA
:1002A8000310900D910DFF3E031D54290130940059
:1002B80014089507512911081302031D6529100810
:1002C8001202031C6D29100892021108031C9303E3
:1002D800930201300310910C900CFF3E031D6E2910
:1002E80001309502031D5F29160803198029920918
:1002F8009309920A0319930A1308910012089000AF
:10030800080083129F0002309C001C0899000A30E4
:100318009000003091001F089D009E011D0892006A
:100328001E08930039218312100814200330831209
:100338009C001C0899000A309000003091001F08AA
:100348009D009E011D0892001E08930093208312B1
:1003580010081420080083129F0004309C001C0819
:1003680099000A309000003091001F089D009E01FE
:100378001D0892001E0893003921831210081420CA
:10038800053083129C001C0899000A309000003048
:1003980091001F089D009E011D0892001E089300F1
:1003A8009320831210081420080083129E009901DC
:1003B8000A309000003091001E089C009D011C0826
:1003C80092001D089300392183121008142083120B
:1003D8009901990A0A309000003091001E089C008B
:1003E8009D011C0892001D08930093208312100899
:1003F800142008000B1D072A0130A4070318A50ABA
:100408000030A5070B110F08CF000E088A000D0851
:1004180084000C0E8300CE0E4E0E090033283A28B5
:1004280045284D2855285D2865286D2878287F2877
:0C0438001B281D281F2821282328252808
:00000001FF
