:10000000FE2BC22AC42AC62AC82ACA2ACC2ACE2A29
:0E001000D02AD22AD42AE32AE62AE92AEC2AA8
:1005180083120C080D040319BA2A9101910A8D1B44
:10052800A12A013003108C0D8D0DFF3E031D962A64
:100538000130900010089107932A0D080F02031D3F
:10054800A72A0C080E02031CAF2A0C088E020D08FD
:10055800031C8F038F02013003108D0C8C0CFF3E9F
:10056800031DB02A01309102031DA12A0F088D0036
:100578000E088C00080083129B00D72A8030D52AE9
:10058800F230D52A4830D52A6030D52A3230D52ADB
:100598002430D52A0430D52AF030D52A8601EF2A0E
:1005A80020308600EF2A1B0884000A300402031852
:1005B800EF2A00308A00013004078200EF2A083051
:1005C8008500080004308500080002308500080016
:1005D8000130850008001A0884000430040203185A
:1005E800080000308A000B300407820008008312DC
:1005F80097019801120813040319332B9901990ADA
:10060800931B122B01300310920D930DFF3E031D17
:10061800072B0130960016089907042B01300310A8
:10062800970D980DFF3E031D132B13081502031D8C
:100638001F2B12081402031C282B120894021308FB
:10064800031C95039502171401300310930C920CA8
:10065800FF3E031D292B01309902031D122B180898
:1006680093001708920008008312810183168112F3
:1006780001128111011481140115F0308500013037
:1006880086000F308312850080308600A301A40104
:10069800831206185E2B061C4F2B0130A000200881
:1006A800A3062130A1007630A000A00B592BA10B86
:1006B800592B00000B1D682B831223080319682B84
:1006C8000130A0002008A20783122208A0002007FA
:1006D800A1002108A4002408A000A10120089C0072
:1006E80021089D0078234C2B83129A010A308C0034
:1006F80000308D001D088F001C088E008C2283128C
:100708000C08BF22113083129F003A309E009E0BC6
:100718008B2B9F0B8B2B000083129A019A0A0A30AD
:100728009200003093001D088F001C088E00643072
:100738008C0000308D008C2283120D0895000C0867
:100748009400FB2283121208BF22113083129F00EB
:100758003A309E009E0BAE2B9F0BAE2B0000023052
:1007680083129E001E089A006430920000309300A5
:100778001D088F001C088E00E8308C0003308D00A7
:100788008C2283120D0895000C089400FB2283121A
:100798001208BF22113083129F003A309E009E0B30
:1007A800D32B9F0BD32B0000033083129E001E080F
:1007B8009A00E8309200033093001D088F001C084F
:1007C8008E0010308C0027308D008C2283120D088B
:1007D80095000C089400FB2283121208BF221130E6
:1007E80083129F003A309E009E0BF82B9F0BF82B2C
:0807F800000008008301382B0A
:00000001FF
