:0E000000FC2B372B3B2B3F2B4B2B432B472B43
:1005D000013083128C000C089507103015020318A7
:1005E00095011508080083121508031DFB2A103019
:1005F0008C000C0895000130950215080800831244
:10060000951D092B15088C000C078D000D08950011
:100610000B2B0314950D15080800013083128C0074
:100620000C089507103015060319950115088C0064
:1006300003100C0C15060800013083128C00150AFB
:10064000232B03108C0DFF3E031D212B0C088D0066
:100650000D088E0001308C000C089507043015023F
:10066000031895010E08080083128F004D2BE82215
:10067000831285000800F3228312850008000D23F1
:100680008312850008001C23831285000800FF22C6
:10069000831285000800850108000F08CF3E031C67
:1006A0004B2B84000630040203184B2B00308A00C9
:1006B0000130040782000800E03083168500F8301E
:1006C00086008312850107308600831292010A306A
:1006D00012020318902B93238312900010089300AA
:1006E0002130910076309000900B742B910B742B7D
:1006F0000000AA30831213060319882B130814066E
:100700000319882B13089000100894009501902B72
:1007100001309000100892070A301202031C6B2B64
:1007200014083423652B0430831286009F2B31304C
:10073000080034300800373008002A300800060866
:10074000F0398C008D010D08003A0319A82BB62B47
:100750000C08103A0319972B303A0319992B603A79
:1007600003199B2BC03A03199D2BB62B0230860030
:10077000C12B3230080035300800383008003030E6
:1007800008000608F0398C008D010D08003A0319A5
:10079000CA2BD82B0C08103A0319B92B303A03197D
:1007A000BB2B603A0319BD2BC03A0319BF2BD82BC2
:1007B00001308600E32B3330080036300800393032
:1007C0000800233008000608F0398C008D010D0860
:1007D000003A0319EC2BFA2B0C08103A0319DB2B07
:1007E000303A0319DD2B603A0319DF2BC03A0319A5
:1007F000E12BFA2BAA3008009401950183015C2BB0
:00000001FF
