:020000000F28C7
:10000800CE00030E83128D0004088E000A088F00AC
:100018004F0890007A2B10289123B1009223B20048
:100028009323B3009423B4009523B5009623B60018
:100038009723B7009823B800B901BA0183012D2B83
:10020000CF1B0A2983134F1883170008840A031988
:10021000CF0A08004F087F398A000408840A0319AE
:10022000CF0A82005E3401345E3401345E3401341E
:10023000FA340034643400345E340134FA34003467
:1002400064340034BC3402345E3401345E3401342E
:100250005E340134FA340034643400345E340134E2
:10026000FA34003464340034BC3402345E34013473
:10027000FA340034643400345E340134FA34003427
:10028000643400346434003464340034C2340134DF
:10029000963400345E340134FA340034643400346B
:1002A0006434003464340034C2340134963400348D
:1002B0005E340134FA340034643400345E34013482
:1002C000FA34003464340034C23401345E3401340E
:1002D0005E3401345E340134FA3400346434003462
:1002E0005E340134FA34003464340034BC340234F3
:1002F0005E3401345E3401345E340134FA34003447
:10030000643400345E340134FA340034643400342C
:10031000BC3402345E340134FA34003464340034C2
:100320005E340134FA34003464340034643400340C
:1003300064340034C2340134963400345E34013401
:10034000FA340034643400346434003464340034E7
:10035000C2340134963400345E340134FA3400344B
:10036000643400345E340134FA34003464340034CC
:10037000C23401348834013488340134883401347F
:1003800037340134D2340134883401343734013401
:10039000D2340134883401344B3402344B340234C7
:1003A0004B3402346E340234D234013471340134AB
:1003B00037340134D23401348834013410340334F6
:1003C000883401348834013410340334E334023483
:1003D000BA340234933402346E3402349334023427
:1003E0009F3401342A3402340B340234ED340134A6
:1003F000D2340134B8340134D234013437340134C6
:100400007134013437340134D23401348834013446
:1004100037340134D2340134883401342434013483
:100420002434013424340134D33400346E340134A0
:1004300024340134D33400346E3401342434013490
:100440004B3402344B3402344B3402346E340234B5
:10045000D23401347134013437340134D2340134AC
:10046000883401341034033488340134883401343E
:1004700010340334E3340234BA3402349334023493
:100480006E340234933402349F3401342A340234FB
:100490000B340234ED340134D2340134B834013435
:1004A000D2340134373401347134013437340134F7
:1004B000D23401348834013437340134D234013435
:1004C000883401348312AC001F08A0002007353E99
:1004D000840083130008A100840A0008A2002C08ED
:1004E000A30023072107840022080318220ACF0053
:1004F00000219700002198004C3099001D309A008F
:10050000F02283121808AE001708AD0003102D0D5D
:1005100097002E0D98001F08A0002007313E840090
:1005200083130008A100840A0008A2002C08A3007D
:1005300023072107840022080318220ACF00002184
:100540009100002192001430930000309400582351
:10055000831212089A0011089900F02283121808D9
:10056000A5001708A400A601A70125082702031D5E
:10057000BB2A2408260203180800C030A000200867
:100580008604A801A9012E082902031DC92A2D08E5
:1005900028020318D32A01308312A8070318A90AD6
:1005A0000030A907C32A3F30A00020088605AA0111
:1005B000AB012E082B02031DDF2A2D082A02031887
:1005C000E92A01308312AA070318AB0A0030AB07EF
:1005D000D92A0130A6070318A70A0030A707B52AB1
:1005E00083129C019D01170818040319282B9E01F2
:1005F0009E0A981B072B01300310970D980DFF3EA4
:10060000031DFC2A01309B001B089E07F92A0130BC
:1006100003109C0D9D0DFF3E031D082B18081A02A8
:10062000031D142B17081902031C1D2B1708990210
:100630001808031C9A039A021C1401300310980C2A
:10064000970CFF3E031D1E2B01309E02031D072B3E
:100650001D0898001C08970008003F30831686008C
:1006600083128601BA01B9018B13831601130B168D
:100670008B1783123A080319392B2A3039020318D1
:100680004E2B3A08FF3EAF002F089F003908622228
:1006900001308312AF002F08B907392BB901A330FD
:1006A000B0005530AF00AF0B532BB00B532B392B91
:1006B000831295019601111C632B130895070318EB
:1006C000960A1408960701300310930D940DFF3E0F
:1006D000031D642B01300310920C910CFF3E031D8F
:1006E0006B2B11081204031D5B2B160892001508D2
:1006F000910008008B1C862BB90101308C000C087E
:10070000BA0703303A020318BA018B101008CF0061
:100710000F088A000E0884000D0E8300CE0E4E0EC8
:1007200009001234813466348134BA3481340E3491
:02073000823411
:00000001FF
