:02000000D62BFD
:1006080083128D000D08860053308C008C0B0A2B4A
:100618000800223004232030042328302E230C30F5
:100628002E2301302E2306302E23080041346C344B
:100638006534783420344D3469346B34683461342B
:100648006C3469346E34003442345334553449348C
:100658005234003483128F000F08F0398E000E08D0
:100668009000100802380423831210080423831210
:100678000F080F398E000E089000900EF03090058C
:100688001008023804238312100804230800831278
:100698008F000F08F0398E000E08900010080338FC
:1006A8000423831210080138042383120F080F391A
:1006B8008E000E089000900EF03090051008033858
:1006C80004238312100801380423080083129600BB
:1006D8001108930006300310930DFF3E031D6F2B86
:1006E80012081307BF3E94001408950015088038B7
:1006F8002E238312160884008313000803190800A8
:10070800831216088400831300084B2383121608EB
:10071800013E9300130896007D2BFF308316850059
:100728008601831286010D232930840083123D0837
:1007380083138000840A3E088000840A3F088000F2
:10074800840A40088000840A41088000840A42081C
:1007580080001B3084002F309700040898000E306A
:10076800990017088400831300089A00970A18084C
:1007780084001A088000980A990BB52B9101910AF8
:10078800073097001708920029306A230230831235
:1007980097001708910003309800180892001B3042
:1007A8006A23D52B1A23AF001B23B0001C23B100EA
:1007B8001D23B2001E23B3001F23B4002023B5005D
:1007C8002123B6002223B7002323B8002423B9002D
:1007D8002523BA002623BB002723BC002823BD00FD
:1007E8002923BE002A23BF002B23C0002C23C100CD
:0807F8002D23C2008301912BA7
:00000001FF
