:10000000FE2B00308A000408840A82070034C834BA
:100010000034C8340034C8340034C8340034C83420
:10002000003464340034C834003400340034003404
:100030000034003400340034003400340034003420
:100040000034003400340034003400340034003410
:100050000034003400340034003400340034003400
:1000600000340034003400340034003400340034F0
:1000700000340034003400340034003400340034E0
:1000800000340034003400340034003400340034D0
:1000900000340034003400340034003400340034C0
:1000A00000340034003400340034493401348834DE
:1000B0000134B83401344934013488340134D23441
:1000C0000134B834013400340034003400340034D6
:1000D0000034003400340034003400340034003480
:1000E0000034003400340034003400340034003470
:1000F0000034003400340034003400340034003460
:10010000003400340034003400340034003400344F
:10011000003400340034003400340034003400343F
:10012000003400340034003400340034003400342F
:10013000003400340034003400340034003400341F
:060140000034003400341D
:1006A4007F308316860083128601A101A201A20174
:1006B400273022020318592B2208A3230130831266
:1006C400A0002008A2075A2B8312910192010C0862
:1006D4000D0403199E2B9301930A8D1B7D2B01306E
:1006E40003108C0D8D0DFF3E031D722B0130900005
:1006F400100893076F2B01300310910D920DFF3EEC
:10070400031D7E2B0D080F02031D8A2B0C080E02FD
:10071400031C932B0C088E020D08031C8F038F02FD
:100724001114013003108D0C8C0CFF3E031D942B0F
:1007340001309302031D7D2B12088D0011088C00DB
:10074400080083129D009B019C01970198011D08DC
:10075400940014074F3E840001208C0001208D007A
:1007640020308E004E308F00662383120D089F00C8
:100774000C089E001F089A001E0899009B019C010A
:100784001D0894001407013E8400012095000120F7
:1007940096000310960C950C16081C02031DD42B0E
:1007A40015081B020318080086171E081F040319E6
:1007B400E32B013083129E020030031C9F039F022F
:1007C400D72B7F309400140886051A089F00190857
:1007D4009E001E081F040319F72B013083129E028A
:1007E4000030031C9F039F02EB2B01309B0703186F
:0C07F4009C0A00309C07C22B8301522B92
:02400E00FBFFB6
:00000001FF
